
POST /users-onboarding/v1/authentication-requests HTTP/1.1
Host: api.conformance.intebsi.xyz
Content-Length: 33
Accept: application/json,application/json
Accept-Charset: UTF-8
User-Agent: Ktor client
Content-Type: application/json
Conformance: 286dc8c9-15ce-4f4b-a32b-8ce5a5b7c4f5

{"scope":"ebsi users onboarding"}

HTTP/1.1 201 Created
Access-Control-Allow-Origin: *
Content-Length: 1070
Content-Security-Policy: default-src 'self';base-uri 'self';block-all-mixed-content;font-src 'self' https: data:;form-action 'self';frame-ancestors 'self';img-src 'self' data:;object-src 'none';script-src 'self';script-src-attr 'none';style-src 'self' https: 'unsafe-inline';upgrade-insecure-requests
Content-Type: application/json; charset=utf-8
Cross-Origin-Embedder-Policy: require-corp
Cross-Origin-Opener-Policy: same-origin
Cross-Origin-Resource-Policy: same-origin
Date: Tue, 15 Feb 2022 12:09:13 GMT
Expect-Ct: max-age=0
Origin-Agent-Cluster: ?1
Referrer-Policy: no-referrer
Strict-Transport-Security: max-age=15552000; includeSubDomains
Vary: Origin
X-Content-Type-Options: nosniff
X-Dns-Prefetch-Control: off
X-Download-Options: noopen
X-Frame-Options: SAMEORIGIN
X-Permitted-Cross-Domain-Policies: none
X-Xss-Protection: 0

{"session_token":"openid://?response_type=id_token&client_id=https%3A%2F%2Fapi.conformance.intebsi.xyz%2Fusers-onboarding%2Fv1%2Fauthentication-responses&scope=openid%20did_authn&nonce=41bbaf8f-b375-4286-90ae-8d575b4777c7&request=eyJhbGciOiJFUzI1NksiLCJ0eXAiOiJKV1QiLCJraWQiOiJodHRwczovL2FwaS5jb25mb3JtYW5jZS5pbnRlYnNpLnh5ei90cnVzdGVkLWFwcHMtcmVnaXN0cnkvdjIvYXBwcy8weDA2ZDM0YjRlYTFjN2FiOTU4YThmYTdmZDUyYTg3M2M2OGZjZDVlMWE2NTVjNTRhNDIwOWEwYzU3NWY4ZGMyOWMifQ.eyJpYXQiOjE2NDQ5MjY5NTMsImV4cCI6MTY0NDkyNzI1MywiaXNzIjoiZGlkOmVic2k6emNHdnFnWlRIQ3Rramd0Y0tSTDdIOGsiLCJzY29wZSI6Im9wZW5pZCBkaWRfYXV0aG4iLCJyZXNwb25zZV90eXBlIjoiaWRfdG9rZW4iLCJyZXNwb25zZV9tb2RlIjoicG9zdCIsImNsaWVudF9pZCI6Imh0dHBzOi8vYXBpLmNvbmZvcm1hbmNlLmludGVic2kueHl6L3VzZXJzLW9uYm9hcmRpbmcvdjEvYXV0aGVudGljYXRpb24tcmVzcG9uc2VzIiwicmVkaXJlY3RfdXJpIjoiaHR0cHM6Ly9hcGkuY29uZm9ybWFuY2UuaW50ZWJzaS54eXovdXNlcnMtb25ib2FyZGluZy92MS9hdXRoZW50aWNhdGlvbi1yZXNwb25zZXMiLCJub25jZSI6IjQxYmJhZjhmLWIzNzUtNDI4Ni05MGFlLThkNTc1YjQ3NzdjNyJ9.pwg84y6xetQiaI-jnKser24FUhiT3nZTkJa7SckC6IziMxrmPjZ-3RRfqglf0saR1Iog9c3bQprNN1WbtsuPDg"}

POST /users-onboarding/v1/authentication-responses HTTP/1.1
Host: api.conformance.intebsi.xyz
Content-Length: 910
Accept: application/json,application/json
Authorization: Bearer eyJhbGciOiJFUzI1NksiLCJ0eXAiOiJKV1QifQ.eyJleHAiOjE2NDQ5Mjc3NTUsImlhdCI6MTY0NDkyNjg1NSwiaXNzIjoiZGlkOmVic2k6emNHdnFnWlRIQ3Rramd0Y0tSTDdIOGsiLCJvbmJvYXJkaW5nIjoicmVjYXB0Y2hhIiwidmFsaWRhdGVkSW5mbyI6eyJhY3Rpb24iOiJsb2dpbiIsImNoYWxsZW5nZV90cyI6IjIwMjItMDItMTVUMTI6MDc6MzJaIiwiaG9zdG5hbWUiOiJhcHAucHJlcHJvZC5lYnNpLmV1Iiwic2NvcmUiOjAuOSwic3VjY2VzcyI6dHJ1ZX19.xU99i6NJUUbV7zXFNilkT4RGP9QuVG1waTKHteufipG6XTFt11Ku9JhW1ufsva8BC-vHyX9sRqjK53cEp65T9A
Accept-Charset: UTF-8
User-Agent: Ktor client
Content-Type: application/json
Conformance: 286dc8c9-15ce-4f4b-a32b-8ce5a5b7c4f5

{"id_token":"eyJraWQiOiJkaWQ6ZWJzaTp6eWo3WFdIM3kxSFhMRkY3UXBxZ1Z4MSMyMWFlNWRjNTE2NzQ0MDQ3OWJiMmUwODlkMjYxZjliMiIsInR5cCI6IkpXVCIsImFsZyI6IkVTMjU2SyJ9.eyJhdWQiOiJodHRwczpcL1wvYXBpLmNvbmZvcm1hbmNlLmludGVic2kueHl6XC91c2Vycy1vbmJvYXJkaW5nXC92MVwvYXV0aGVudGljYXRpb24tcmVzcG9uc2VzIiwic3ViIjoia05NMXFEWGpsa0tNZE1pbWVzaUxNbmZ6VXF6RnZEam5KanBlMThvWEdhNCIsImlzcyI6Imh0dHBzOlwvXC9zZWxmLWlzc3VlZC5tZSIsInN1Yl9qd2siOnsia3R5IjoiRUMiLCJ1c2UiOiJzaWciLCJjcnYiOiJzZWNwMjU2azEiLCJraWQiOiJkaWQ6ZWJzaTp6eWo3WFdIM3kxSFhMRkY3UXBxZ1Z4MSMyMWFlNWRjNTE2NzQ0MDQ3OWJiMmUwODlkMjYxZjliMiIsIngiOiJPdl9HVkxVeE9xakl4el9rQXhaYmtOcmlXSlVvOFljay1PY1gtSGJkNHlZIiwieSI6IkxVa1B1aXhybFlsMEpPeFNqd1ZteUE2dndxYS1UNVo2YVBOSWNzUWVRQ0kiLCJhbGciOiJFUzI1NksifSwiZXhwIjoxNjQ0OTI3MjUzLCJpYXQiOjE2NDQ5MjY5NTMsIm5vbmNlIjoiNDFiYmFmOGYtYjM3NS00Mjg2LTkwYWUtOGQ1NzViNDc3N2M3In0.T2AFmbjhN419l2ImDPkTtD3sFjuH2JO4ja-1uXZhjcies9dJNFI_mRu0RchmFwReHxO4dOyuFKbKkibkf7ic2w"}

HTTP/1.1 201 Created
Access-Control-Allow-Origin: *
Content-Length: 1034
Content-Security-Policy: default-src 'self';base-uri 'self';block-all-mixed-content;font-src 'self' https: data:;form-action 'self';frame-ancestors 'self';img-src 'self' data:;object-src 'none';script-src 'self';script-src-attr 'none';style-src 'self' https: 'unsafe-inline';upgrade-insecure-requests
Content-Type: application/json; charset=utf-8
Cross-Origin-Embedder-Policy: require-corp
Cross-Origin-Opener-Policy: same-origin
Cross-Origin-Resource-Policy: same-origin
Date: Tue, 15 Feb 2022 12:09:13 GMT
Expect-Ct: max-age=0
Origin-Agent-Cluster: ?1
Referrer-Policy: no-referrer
Strict-Transport-Security: max-age=15552000; includeSubDomains
Vary: Origin
X-Content-Type-Options: nosniff
X-Dns-Prefetch-Control: off
X-Download-Options: noopen
X-Frame-Options: SAMEORIGIN
X-Permitted-Cross-Domain-Policies: none
X-Xss-Protection: 0

{"verifiableCredential":{"id":"vc:ebsi:authentication#87710605-89f3-4dc9-a766-a3558aa206d0","issuer":"did:ebsi:zcGvqgZTHCtkjgtcKRL7H8k","validFrom":"2022-02-15T12:09:13Z","credentialSubject":{"id":"did:ebsi:zyj7XWH3y1HXLFF7QpqgVx1"},"credentialSchema":{"id":"https://api.conformance.intebsi.xyz/trusted-schemas-registry/v1/schemas/0x14b05b9213dbe7d343ec1fe1d3c8c739a3f3dc5a59bae55eb38fa0c295124f49","type":"OID"},"issuanceDate":"2022-02-15T12:09:13Z","expirationDate":"2022-08-16T12:09:13Z","@context":["https://www.w3.org/2018/credentials/v1","https://www.w3.org/2018/credentials/examples/v1","https://w3c-ccg.github.io/lds-jws2020/contexts/lds-jws2020-v1.json"],"type":["VerifiableCredential","VerifiableAuthorisation"],"proof":{"type":"EcdsaSecp256k1Signature2019","created":"2022-02-15T12:09:13Z","proofPurpose":"assertionMethod","verificationMethod":"did:ebsi:zcGvqgZTHCtkjgtcKRL7H8k#keys-1","jws":"eyJhbGciOiJFUzI1NksiLCJ0eXAiOiJKV1QifQ..z4YS5UeDchi0qyPxoTndMntHxAUxNyP2WzZj-QhW3ekvRViOghD8qXgdkS2RXU4Z7YsOaquXVennDCcCZKmDxA"}}}

POST /authorisation/v1/siop-sessions HTTP/1.1
Host: api.conformance.intebsi.xyz
Content-Length: 3989
Accept: application/json,application/json
Accept-Charset: UTF-8
User-Agent: Ktor client
Content-Type: application/json
Conformance: 286dc8c9-15ce-4f4b-a32b-8ce5a5b7c4f5

{"id_token":"eyJraWQiOiIzYWJhYjU0NGY1N2U0MDdjYmFjNGYxOWY5NTAwNWQ5YSIsInR5cCI6IkpXVCIsImFsZyI6IkVTMjU2SyJ9.eyJhdWQiOiJcL3Npb3Atc2Vzc2lvbnMiLCJzdWIiOiJYYmhaVVRUNjZfWEhTZGk0YnM1QmswSjFGb3BJZEk1ZmlGYXJLajhOWXZRIiwiaXNzIjoiaHR0cHM6XC9cL3NlbGYtaXNzdWVkLm1lIiwiY2xhaW1zIjp7InZlcmlmaWVkX2NsYWltcyI6ImV5SkFZMjl1ZEdWNGRDSTZXeUpvZEhSd2N6b3ZMM2QzZHk1M015NXZjbWN2TWpBeE9DOWpjbVZrWlc1MGFXRnNjeTkyTVNKZExDSm9iMnhrWlhJaU9pSmthV1E2WldKemFUcDZlV28zV0ZkSU0za3hTRmhNUmtZM1VYQnhaMVo0TVNJc0luQnliMjltSWpwN0ltTnlaV0YwWldRaU9pSXlNREl5TFRBeUxURTFWREV5T2pBNU9qRTBXaUlzSW1OeVpXRjBiM0lpT2lKa2FXUTZaV0p6YVRwNmVXbzNXRmRJTTNreFNGaE1Sa1kzVVhCeFoxWjRNU0lzSW1SdmJXRnBiaUk2SW1oMGRIQTZMeTlzYjJOaGJHaHZjM1E2T0RBNE1DSXNJbXAzY3lJNkltVjVTbWxPYWxGcFQyMWFhR0pJVG14TVEwcHFZMjFzTUVscWNHSkpiVWt5VGtOS1pFeERTbWhpUjJOcFQybEtSbFY2U1RGT2EzTnBabEV1TGpKVVYyb3plVjkwYkROclpVVTFkbTV4YkRORGNVZ3RUSFpTWWtGcFVVSlNZWE56Y2kxTU4xaGxjakY1YzJKelYzbFZVMUZ1Y0U5eWJrNVZNblJpV1dOZllrOTJlR1o2YTA4eFFtTndlWGxXZG5OVWRVWm5JaXdpYm05dVkyVWlPaUl3WldWaE5EVTJOeTAwWkRZMkxUUTVNV1F0WVdSbVl5MDBNV0k1TUdVNVlqTTJNakFpTENKd2NtOXZabEIxY25CdmMyVWlPaUpoYzNObGNuUnBiMjVOWlhSb2IyUWlMQ0owZVhCbElqb2lSV05rYzJGVFpXTndNalUyYXpGVGFXZHVZWFIxY21VeU1ERTVJaXdpZG1WeWFXWnBZMkYwYVc5dVRXVjBhRzlrSWpvaVpHbGtPbVZpYzJrNmVubHFOMWhYU0RONU1VaFlURVpHTjFGd2NXZFdlREVqTWpGaFpUVmtZelV4TmpjME5EQTBOemxpWWpKbE1EZzVaREkyTVdZNVlqSWlmU3dpZEhsd1pTSTZXeUpXWlhKcFptbGhZbXhsVUhKbGMyVnVkR0YwYVc5dUlsMHNJblpsY21sbWFXRmliR1ZEY21Wa1pXNTBhV0ZzSWpwYmV5SkFZMjl1ZEdWNGRDSTZXeUpvZEhSd2N6b3ZMM2QzZHk1M015NXZjbWN2TWpBeE9DOWpjbVZrWlc1MGFXRnNjeTkyTVNJc0ltaDBkSEJ6T2k4dmQzZDNMbmN6TG05eVp5OHlNREU0TDJOeVpXUmxiblJwWVd4ekwyVjRZVzF3YkdWekwzWXhJaXdpYUhSMGNITTZMeTkzTTJNdFkyTm5MbWRwZEdoMVlpNXBieTlzWkhNdGFuZHpNakF5TUM5amIyNTBaWGgwY3k5c1pITXRhbmR6TWpBeU1DMTJNUzVxYzI5dUlsMHNJbU55WldSbGJuUnBZV3hUWTJobGJXRWlPbnNpYVdRaU9pSm9kSFJ3Y3pvdkwyRndhUzVqYjI1bWIzSnRZVzVqWlM1cGJuUmxZbk5wTG5oNWVpOTBjblZ6ZEdWa0xYTmphR1Z0WVhNdGNtVm5hWE4wY25rdmRqRXZjMk5vWlcxaGN5OHdlREUwWWpBMVlqa3lNVE5rWW1VM1pETTBNMlZqTVdabE1XUXpZemhqTnpNNVlUTm1NMlJqTldFMU9XSmhaVFUxWldJek9HWmhNR015T1RVeE1qUm1ORGtpTENKMGVYQmxJam9pVDBsRUluMHNJbU55WldSbGJuUnBZV3hUZFdKcVpXTjBJanA3SW1sa0lqb2laR2xrT21WaWMyazZlbmxxTjFoWFNETjVNVWhZVEVaR04xRndjV2RXZURFaWZTd2laWGh3YVhKaGRHbHZia1JoZEdVaU9pSXlNREl5TFRBNExURTJWREV5T2pBNU9qRXpXaUlzSW1sa0lqb2lkbU02WldKemFUcGhkWFJvWlc1MGFXTmhkR2x2YmlNNE56Y3hNRFl3TlMwNE9XWXpMVFJrWXprdFlUYzJOaTFoTXpVMU9HRmhNakEyWkRBaUxDSnBjM04xWVc1alpVUmhkR1VpT2lJeU1ESXlMVEF5TFRFMVZERXlPakE1T2pFeldpSXNJbWx6YzNWbGNpSTZJbVJwWkRwbFluTnBPbnBqUjNaeFoxcFVTRU4wYTJwbmRHTkxVa3czU0Rocklpd2ljSEp2YjJZaU9uc2lZM0psWVhSbFpDSTZJakl3TWpJdE1ESXRNVFZVTVRJNk1EazZNVE5hSWl3aWFuZHpJam9pWlhsS2FHSkhZMmxQYVVwR1ZYcEpNVTVyYzJsTVEwb3daVmhCYVU5cFNrdFdNVkZwWmxFdUxubzBXVk0xVldWRVkyaHBNSEY1VUhodlZHNWtUVzUwU0hoQlZYaE9lVkF5VjNwYWFpMVJhRmN6Wld0MlVsWnBUMmRvUkRoeFdHZGthMU15VWxoVk5GbzNXWE5QWVhGMVdGWmxibTVFUTJORFdrdHRSSGhCSWl3aWNISnZiMlpRZFhKd2IzTmxJam9pWVhOelpYSjBhVzl1VFdWMGFHOWtJaXdpZEhsd1pTSTZJa1ZqWkhOaFUyVmpjREkxTm1zeFUybG5ibUYwZFhKbE1qQXhPU0lzSW5abGNtbG1hV05oZEdsdmJrMWxkR2h2WkNJNkltUnBaRHBsWW5OcE9ucGpSM1p4WjFwVVNFTjBhMnBuZEdOTFVrdzNTRGhySTJ0bGVYTXRNU0o5TENKMGVYQmxJanBiSWxabGNtbG1hV0ZpYkdWRGNtVmtaVzUwYVdGc0lpd2lWbVZ5YVdacFlXSnNaVUYxZEdodmNtbHpZWFJwYjI0aVhTd2lkbUZzYVdSR2NtOXRJam9pTWpBeU1pMHdNaTB4TlZReE1qb3dPVG94TTFvaWZWMTkiLCJlbmNyeXB0aW9uX2tleSI6eyJrdHkiOiJFQyIsImNydiI6InNlY3AyNTZrMSIsIngiOiJ4VzlVaS1EYm1MRENYbDFRTXZWV0FmN3ZXc080V2ZscHlOd3lTT1VvbGhFIiwieSI6ImJ6aVVZbWQ3cWhBbnhSQXZ0SDVnM1ZBcnJDaVJVVmVjNWRxZUF1b2gwdEkiLCJhbGciOiJFUzI1NksifX0sInN1Yl9qd2siOnsia3R5IjoiRUMiLCJkIjoiRjk1aENnVXVvUXVsRGEwRk1TUEJFdmRVaFllUzlPNzNFTWNzQmJkSXZuWSIsInVzZSI6InNpZyIsImNydiI6InNlY3AyNTZrMSIsImtpZCI6IjNhYmFiNTQ0ZjU3ZTQwN2NiYWM0ZjE5Zjk1MDA1ZDlhIiwieCI6InhXOVVpLURibUxEQ1hsMVFNdlZXQWY3dldzTzRXZmxweU53eVNPVW9saEUiLCJ5IjoiYnppVVltZDdxaEFueFJBdnRINWczVkFyckNpUlVWZWM1ZHFlQXVvaDB0SSIsImFsZyI6IkVTMjU2SyJ9LCJleHAiOjE2NDQ5MjcyNTQsImlhdCI6MTY0NDkyNjk1NCwibm9uY2UiOiI1NWZiMzI3MS02YmJkLTQ3MmUtYmVkMi0wYzhhZTQ5NjdiNTIifQ.gIltl8lwdK60G8kMHk9tjGlo13M0ah69eBNWMsRag554a099X-cmuCWxiVZq4JvtB7bCxZYC64osMVwWnY1efQ"}

HTTP/1.1 200 OK
Access-Control-Allow-Origin: *
Content-Length: 3816
Content-Security-Policy: default-src 'self';base-uri 'self';block-all-mixed-content;font-src 'self' https: data:;form-action 'self';frame-ancestors 'self';img-src 'self' data:;object-src 'none';script-src 'self';script-src-attr 'none';style-src 'self' https: 'unsafe-inline';upgrade-insecure-requests
Content-Type: application/json; charset=utf-8
Cross-Origin-Embedder-Policy: require-corp
Cross-Origin-Opener-Policy: same-origin
Cross-Origin-Resource-Policy: same-origin
Date: Tue, 15 Feb 2022 12:09:14 GMT
Expect-Ct: max-age=0
Origin-Agent-Cluster: ?1
Referrer-Policy: no-referrer
Strict-Transport-Security: max-age=15552000; includeSubDomains
Vary: Origin
X-Content-Type-Options: nosniff
X-Dns-Prefetch-Control: off
X-Download-Options: noopen
X-Frame-Options: SAMEORIGIN
X-Permitted-Cross-Domain-Policies: none
X-Xss-Protection: 0

{"ake1_enc_payload":"f88d2caeea4347ac177c3d73dd7391a703e929924aa2023497ec7918e5a0d23254ef5a326aac049a6c9105936799e83d10befa8779a40cf726ce18c859933b36eb9f0efd142a1ba48d03cbc79b43c09f8e78082f6b71dea5c928f1955c9fd0817f9289f2908ef52b205978ccbec6e963a753415dc49c9ae56a1aec7d9c237bea4ef007666c102051d73ff6280842bc500f98164ef039f03dd312bf6f64b82fba819f16d4641bb86c791ce4cb18f482a81872ebed4ba33862c41ef2137c9895d8bc4240c8ff397105e93239b02e268f5119bc59ed6ab895efde31c777d90af088c36aedccc5b577fa8803e79dd2d2a87626a38cdfd2a256a1c642f2d5b2db4d8e848e2ab8379d18a54efe69ca38e1457247990b01a28b6bd22563fe6fabc1afd4731bd0cd9e4e66ab6e3a763d0ad36fdcb8ca0c70bd0b85d36a689c2d9a225ffd7d7103c03be199414e59a1e0b19a6375eab0d7c60fbf6c40cb14daddd1feb79e445278d63cfe0dbc45180262b946fa98e918c8897758d32e4b1237e04b278b6ffa0b5759a7bea0aaeb8081e0778bc05bedec2fe8ca5cc923087f2369ca17b35068b14bc4d748626a0972fef6755efeca73ad72567987dabd3cfed846a4128d697932f7d7a3b5e78d82eda0f244c47ca2241a85e82c6159abe018755c226e451776204e41b35d1aab6052d9c8a28cdd6370832dacc0e131000faa05037e53d6ec78717803ab180a803fdbe0518a8d5ed2423bb553c9a9dfe2baa4d96283af76bf296937c5c2e505ea2eac31d3180c80e2a61acf5114bf1ea12566e55dd087d69574f70b70c64ca60732271a88642be1560f7aee4c33896a935235c125229690ea2742cfc701eb2b90c17fe6e35ea7a4e828a27bdad417dfc0d0b1126fc52738d5b4ab9114dbdfc6ea8c1acf5c1f518a73c4117dac54c672bb1cc417453371bd8fed4edb2725eb0c56d77c9b528e09f8177cfdaaf134e87844beebaf7dc60c6294ba68750d02bd23448d41b1864c435a2c79b3e2b76982e6942c5e44f448815b943d00641b66f92b039af8e4ea071901b78274ed3b234395ef7d5071975281fef87ba53bdd9c76151c0fac98b26d85baa2aa1f518db6080ea25b6f3265f5b6a6f370","ake1_sig_payload":{"iat":1644926954,"exp":1644927854,"ake1_nonce":"55fb3271-6bbd-472e-bed2-0c8ae4967b52","ake1_enc_payload":"f88d2caeea4347ac177c3d73dd7391a703e929924aa2023497ec7918e5a0d23254ef5a326aac049a6c9105936799e83d10befa8779a40cf726ce18c859933b36eb9f0efd142a1ba48d03cbc79b43c09f8e78082f6b71dea5c928f1955c9fd0817f9289f2908ef52b205978ccbec6e963a753415dc49c9ae56a1aec7d9c237bea4ef007666c102051d73ff6280842bc500f98164ef039f03dd312bf6f64b82fba819f16d4641bb86c791ce4cb18f482a81872ebed4ba33862c41ef2137c9895d8bc4240c8ff397105e93239b02e268f5119bc59ed6ab895efde31c777d90af088c36aedccc5b577fa8803e79dd2d2a87626a38cdfd2a256a1c642f2d5b2db4d8e848e2ab8379d18a54efe69ca38e1457247990b01a28b6bd22563fe6fabc1afd4731bd0cd9e4e66ab6e3a763d0ad36fdcb8ca0c70bd0b85d36a689c2d9a225ffd7d7103c03be199414e59a1e0b19a6375eab0d7c60fbf6c40cb14daddd1feb79e445278d63cfe0dbc45180262b946fa98e918c8897758d32e4b1237e04b278b6ffa0b5759a7bea0aaeb8081e0778bc05bedec2fe8ca5cc923087f2369ca17b35068b14bc4d748626a0972fef6755efeca73ad72567987dabd3cfed846a4128d697932f7d7a3b5e78d82eda0f244c47ca2241a85e82c6159abe018755c226e451776204e41b35d1aab6052d9c8a28cdd6370832dacc0e131000faa05037e53d6ec78717803ab180a803fdbe0518a8d5ed2423bb553c9a9dfe2baa4d96283af76bf296937c5c2e505ea2eac31d3180c80e2a61acf5114bf1ea12566e55dd087d69574f70b70c64ca60732271a88642be1560f7aee4c33896a935235c125229690ea2742cfc701eb2b90c17fe6e35ea7a4e828a27bdad417dfc0d0b1126fc52738d5b4ab9114dbdfc6ea8c1acf5c1f518a73c4117dac54c672bb1cc417453371bd8fed4edb2725eb0c56d77c9b528e09f8177cfdaaf134e87844beebaf7dc60c6294ba68750d02bd23448d41b1864c435a2c79b3e2b76982e6942c5e44f448815b943d00641b66f92b039af8e4ea071901b78274ed3b234395ef7d5071975281fef87ba53bdd9c76151c0fac98b26d85baa2aa1f518db6080ea25b6f3265f5b6a6f370","did":"did:ebsi:zyj7XWH3y1HXLFF7QpqgVx1","iss":"did:ebsi:znHeZWvhAK2FK2Dk1jXNe7m"},"ake1_jws_detached":"eyJ0eXAiOiJKV1QiLCJhbGciOiJFUzI1NksiLCJraWQiOiJodHRwczovL2FwaS5jb25mb3JtYW5jZS5pbnRlYnNpLnh5ei90cnVzdGVkLWFwcHMtcmVnaXN0cnkvdjIvYXBwcy8weDA4YzI1ODU2ZmJjYmRkMDc2YzljMzk1MTJhYmVmNjMwOTc0OTkxMGExMTBkOWQxYTljOWE3ZDJiMjc3YjZkMjAifQ..vvY79XdtbVNz6ZdNga3uwwcgCrm1mret2esLbT56ynxp_6KZGhwyQcgdCI2KQGl41x_H471MU1SwjbOQk43NKw","did":"did:ebsi:znHeZWvhAK2FK2Dk1jXNe7m"}

POST /did-registry/v2/jsonrpc HTTP/1.1
Host: api.conformance.intebsi.xyz
Content-Length: 1850
Accept: application/json,application/json
Authorization: Bearer eyJ0eXAiOiJKV1QiLCJhbGciOiJFUzI1NksiLCJraWQiOiJodHRwczovL2FwaS5jb25mb3JtYW5jZS5pbnRlYnNpLnh5ei90cnVzdGVkLWFwcHMtcmVnaXN0cnkvdjIvYXBwcy8weDA4YzI1ODU2ZmJjYmRkMDc2YzljMzk1MTJhYmVmNjMwOTc0OTkxMGExMTBkOWQxYTljOWE3ZDJiMjc3YjZkMjAifQ.eyJpYXQiOjE2NDQ5MjY5NTQsImV4cCI6MTY0NDkyNzg1NCwic3ViIjoiZGlkOmVic2k6enlqN1hXSDN5MUhYTEZGN1FwcWdWeDEiLCJhdWQiOiJlYnNpLWNvcmUtc2VydmljZXMiLCJub25jZSI6IjllYTI3YzBjLTUyY2YtNDcxMS05NGJjLTAzYWMzODE5NDU2ZiIsImxvZ2luX2hpbnQiOiJkaWRfc2lvcCIsImlzcyI6ImRpZDplYnNpOnpuSGVaV3ZoQUsyRksyRGsxalhOZTdtIn0.8c58NgytBnGnTDQuuxr2y74_CFllYUpGD91jla-HqYk2z3dyxCqM2uvBF_7m-K95fYhGe63R5GTllSF2FkDUhg
Accept-Charset: UTF-8
User-Agent: Ktor client
Content-Type: application/json
Conformance: 286dc8c9-15ce-4f4b-a32b-8ce5a5b7c4f5

{"jsonrpc":"2.0","method":"insertDidDocument","params":[{"type":"id.walt.services.essif.jsonrpc.InsertDidDocumentParams","from":"0x7bdEb48A9391b05d61D3A97ac390A93b54E81adc","identifier":"0x6469643a656273693a7a796a3758574833793148584c46463751707167567831","hashAlgorithmId":1,"hashValue":"0x00a00f887282e4159743b6279cc17775f76e0547eac65e01e2429c342599247b","didVersionInfo":"0x7b2261757468656e7469636174696f6e22203a205b226469643a656273693a7a796a3758574833793148584c46463751707167567831233231616535646335313637343430343739626232653038396432363166396232225d2c202240636f6e7465787422203a205b2268747470733a2f2f7777772e77332e6f72672f6e732f6469642f7631225d2c2022696422203a20226469643a656273693a7a796a3758574833793148584c46463751707167567831222c2022766572696669636174696f6e4d6574686f6422203a205b7b22636f6e74726f6c6c657222203a20226469643a656273693a7a796a3758574833793148584c46463751707167567831222c2022696422203a20226469643a656273693a7a796a3758574833793148584c46463751707167567831233231616535646335313637343430343739626232653038396432363166396232222c20227075626c69634b65794a776b22203a207b22616c6722203a202245533235364b222c202263727622203a2022736563703235366b31222c20226b696422203a20223231616535646335313637343430343739626232653038396432363166396232222c20226b747922203a20224543222c202275736522203a2022736967222c20227822203a20224f765f47564c55784f716a49787a5f6b41785a626b4e7269574a556f3859636b2d4f63582d486264347959222c20227922203a20224c556b50756978726c596c304a4f78536a77566d794136767771612d54355a3661504e4963735165514349227d2c20227479706522203a20224563647361536563703235366b31566572696669636174696f6e4b657932303139227d5d7d","timestampData":"0x7b2264617461223a2274657374227d","didVersionMetadata":"0x7b226d657461223a2266653238353262366234353761656231393234636632333565373830623834303264303162303030653063616134306365663962396232393138636234313232227d"}],"id":392}

HTTP/1.1 200 OK
Access-Control-Allow-Origin: *
Content-Length: 2614
Content-Security-Policy: default-src 'self';base-uri 'self';block-all-mixed-content;font-src 'self' https: data:;form-action 'self';frame-ancestors 'self';img-src 'self' data:;object-src 'none';script-src 'self';script-src-attr 'none';style-src 'self' https: 'unsafe-inline';upgrade-insecure-requests
Content-Type: application/json; charset=utf-8
Cross-Origin-Embedder-Policy: require-corp
Cross-Origin-Opener-Policy: same-origin
Cross-Origin-Resource-Policy: same-origin
Date: Tue, 15 Feb 2022 12:09:14 GMT
Expect-Ct: max-age=0
Origin-Agent-Cluster: ?1
Referrer-Policy: no-referrer
Strict-Transport-Security: max-age=15552000; includeSubDomains
Vary: Origin
X-Content-Type-Options: nosniff
X-Dns-Prefetch-Control: off
X-Download-Options: noopen
X-Frame-Options: SAMEORIGIN
X-Permitted-Cross-Domain-Policies: none
X-Xss-Protection: 0

{"jsonrpc":"2.0","id":392,"result":{"from":"0x7bdEb48A9391b05d61D3A97ac390A93b54E81adc","to":"0x78c310309A973AFDCbb88169A16941790137fDBe","data":"0x98cc6e9800000000000000000000000000000000000000000000000000000000000000c000000000000000000000000000000000000000000000000000000000000000010000000000000000000000000000000000000000000000000000000000000100000000000000000000000000000000000000000000000000000000000000014000000000000000000000000000000000000000000000000000000000000003e0000000000000000000000000000000000000000000000000000000000000042000000000000000000000000000000000000000000000000000000000000000206469643a656273693a7a796a3758574833793148584c46463751707167567831000000000000000000000000000000000000000000000000000000000000002000a00f887282e4159743b6279cc17775f76e0547eac65e01e2429c342599247b00000000000000000000000000000000000000000000000000000000000002697b2261757468656e7469636174696f6e22203a205b226469643a656273693a7a796a3758574833793148584c46463751707167567831233231616535646335313637343430343739626232653038396432363166396232225d2c202240636f6e7465787422203a205b2268747470733a2f2f7777772e77332e6f72672f6e732f6469642f7631225d2c2022696422203a20226469643a656273693a7a796a3758574833793148584c46463751707167567831222c2022766572696669636174696f6e4d6574686f6422203a205b7b22636f6e74726f6c6c657222203a20226469643a656273693a7a796a3758574833793148584c46463751707167567831222c2022696422203a20226469643a656273693a7a796a3758574833793148584c46463751707167567831233231616535646335313637343430343739626232653038396432363166396232222c20227075626c69634b65794a776b22203a207b22616c6722203a202245533235364b222c202263727622203a2022736563703235366b31222c20226b696422203a20223231616535646335313637343430343739626232653038396432363166396232222c20226b747922203a20224543222c202275736522203a2022736967222c20227822203a20224f765f47564c55784f716a49787a5f6b41785a626b4e7269574a556f3859636b2d4f63582d486264347959222c20227922203a20224c556b50756978726c596c304a4f78536a77566d794136767771612d54355a3661504e4963735165514349227d2c20227479706522203a20224563647361536563703235366b31566572696669636174696f6e4b657932303139227d5d7d0000000000000000000000000000000000000000000000000000000000000000000000000000000000000000000000000000000000000f7b2264617461223a2274657374227d0000000000000000000000000000000000000000000000000000000000000000000000000000000000000000000000004b7b226d657461223a2266653238353262366234353761656231393234636632333565373830623834303264303162303030653063616134306365663962396232393138636234313232227d000000000000000000000000000000000000000000","value":"0x0","nonce":"0x00","chainId":"0x1820","gasLimit":"0x1b95d7","gasPrice":"0x0"}}

POST /did-registry/v2/jsonrpc HTTP/1.1
Host: api.conformance.intebsi.xyz
Content-Length: 5519
Accept: application/json,application/json
Authorization: Bearer eyJ0eXAiOiJKV1QiLCJhbGciOiJFUzI1NksiLCJraWQiOiJodHRwczovL2FwaS5jb25mb3JtYW5jZS5pbnRlYnNpLnh5ei90cnVzdGVkLWFwcHMtcmVnaXN0cnkvdjIvYXBwcy8weDA4YzI1ODU2ZmJjYmRkMDc2YzljMzk1MTJhYmVmNjMwOTc0OTkxMGExMTBkOWQxYTljOWE3ZDJiMjc3YjZkMjAifQ.eyJpYXQiOjE2NDQ5MjY5NTQsImV4cCI6MTY0NDkyNzg1NCwic3ViIjoiZGlkOmVic2k6enlqN1hXSDN5MUhYTEZGN1FwcWdWeDEiLCJhdWQiOiJlYnNpLWNvcmUtc2VydmljZXMiLCJub25jZSI6IjllYTI3YzBjLTUyY2YtNDcxMS05NGJjLTAzYWMzODE5NDU2ZiIsImxvZ2luX2hpbnQiOiJkaWRfc2lvcCIsImlzcyI6ImRpZDplYnNpOnpuSGVaV3ZoQUsyRksyRGsxalhOZTdtIn0.8c58NgytBnGnTDQuuxr2y74_CFllYUpGD91jla-HqYk2z3dyxCqM2uvBF_7m-K95fYhGe63R5GTllSF2FkDUhg
Accept-Charset: UTF-8
User-Agent: Ktor client
Content-Type: application/json
Conformance: 286dc8c9-15ce-4f4b-a32b-8ce5a5b7c4f5

{"jsonrpc":"2.0","method":"signedTransaction","params":[{"type":"id.walt.services.essif.jsonrpc.SignedTransactionParams","protocol":"eth","unsignedTransaction":{"from":"0x7bdEb48A9391b05d61D3A97ac390A93b54E81adc","to":"0x78c310309A973AFDCbb88169A16941790137fDBe","data":"0x98cc6e9800000000000000000000000000000000000000000000000000000000000000c000000000000000000000000000000000000000000000000000000000000000010000000000000000000000000000000000000000000000000000000000000100000000000000000000000000000000000000000000000000000000000000014000000000000000000000000000000000000000000000000000000000000003e0000000000000000000000000000000000000000000000000000000000000042000000000000000000000000000000000000000000000000000000000000000206469643a656273693a7a796a3758574833793148584c46463751707167567831000000000000000000000000000000000000000000000000000000000000002000a00f887282e4159743b6279cc17775f76e0547eac65e01e2429c342599247b00000000000000000000000000000000000000000000000000000000000002697b2261757468656e7469636174696f6e22203a205b226469643a656273693a7a796a3758574833793148584c46463751707167567831233231616535646335313637343430343739626232653038396432363166396232225d2c202240636f6e7465787422203a205b2268747470733a2f2f7777772e77332e6f72672f6e732f6469642f7631225d2c2022696422203a20226469643a656273693a7a796a3758574833793148584c46463751707167567831222c2022766572696669636174696f6e4d6574686f6422203a205b7b22636f6e74726f6c6c657222203a20226469643a656273693a7a796a3758574833793148584c46463751707167567831222c2022696422203a20226469643a656273693a7a796a3758574833793148584c46463751707167567831233231616535646335313637343430343739626232653038396432363166396232222c20227075626c69634b65794a776b22203a207b22616c6722203a202245533235364b222c202263727622203a2022736563703235366b31222c20226b696422203a20223231616535646335313637343430343739626232653038396432363166396232222c20226b747922203a20224543222c202275736522203a2022736967222c20227822203a20224f765f47564c55784f716a49787a5f6b41785a626b4e7269574a556f3859636b2d4f63582d486264347959222c20227922203a20224c556b50756978726c596c304a4f78536a77566d794136767771612d54355a3661504e4963735165514349227d2c20227479706522203a20224563647361536563703235366b31566572696669636174696f6e4b657932303139227d5d7d0000000000000000000000000000000000000000000000000000000000000000000000000000000000000000000000000000000000000f7b2264617461223a2274657374227d0000000000000000000000000000000000000000000000000000000000000000000000000000000000000000000000004b7b226d657461223a2266653238353262366234353761656231393234636632333565373830623834303264303162303030653063616134306365663962396232393138636234313232227d000000000000000000000000000000000000000000","nonce":"0x00","chainId":"0x1820","gasLimit":"0x1b95d7","gasPrice":"0x0","value":"0x0"},"r":"0xbc482ab9fc7098f1de1fd3feb70ce46aa5d426dd989748aa3afc978989a513aa","s":"0x1770029b698b35537f5e7fc8583a7dc64ff16adc3e7b7b0eaf02300cee1200e7","v":"0x3064","signedRawTransaction":"0xf905088080831b95d79478c310309a973afdcbb88169a16941790137fdbe80b904a498cc6e9800000000000000000000000000000000000000000000000000000000000000c000000000000000000000000000000000000000000000000000000000000000010000000000000000000000000000000000000000000000000000000000000100000000000000000000000000000000000000000000000000000000000000014000000000000000000000000000000000000000000000000000000000000003e0000000000000000000000000000000000000000000000000000000000000042000000000000000000000000000000000000000000000000000000000000000206469643a656273693a7a796a3758574833793148584c46463751707167567831000000000000000000000000000000000000000000000000000000000000002000a00f887282e4159743b6279cc17775f76e0547eac65e01e2429c342599247b00000000000000000000000000000000000000000000000000000000000002697b2261757468656e7469636174696f6e22203a205b226469643a656273693a7a796a3758574833793148584c46463751707167567831233231616535646335313637343430343739626232653038396432363166396232225d2c202240636f6e7465787422203a205b2268747470733a2f2f7777772e77332e6f72672f6e732f6469642f7631225d2c2022696422203a20226469643a656273693a7a796a3758574833793148584c46463751707167567831222c2022766572696669636174696f6e4d6574686f6422203a205b7b22636f6e74726f6c6c657222203a20226469643a656273693a7a796a3758574833793148584c46463751707167567831222c2022696422203a20226469643a656273693a7a796a3758574833793148584c46463751707167567831233231616535646335313637343430343739626232653038396432363166396232222c20227075626c69634b65794a776b22203a207b22616c6722203a202245533235364b222c202263727622203a2022736563703235366b31222c20226b696422203a20223231616535646335313637343430343739626232653038396432363166396232222c20226b747922203a20224543222c202275736522203a2022736967222c20227822203a20224f765f47564c55784f716a49787a5f6b41785a626b4e7269574a556f3859636b2d4f63582d486264347959222c20227922203a20224c556b50756978726c596c304a4f78536a77566d794136767771612d54355a3661504e4963735165514349227d2c20227479706522203a20224563647361536563703235366b31566572696669636174696f6e4b657932303139227d5d7d0000000000000000000000000000000000000000000000000000000000000000000000000000000000000000000000000000000000000f7b2264617461223a2274657374227d0000000000000000000000000000000000000000000000000000000000000000000000000000000000000000000000004b7b226d657461223a2266653238353262366234353761656231393234636632333565373830623834303264303162303030653063616134306365663962396232393138636234313232227d000000000000000000000000000000000000000000823064a0bc482ab9fc7098f1de1fd3feb70ce46aa5d426dd989748aa3afc978989a513aaa01770029b698b35537f5e7fc8583a7dc64ff16adc3e7b7b0eaf02300cee1200e7"}],"id":843}

HTTP/1.1 200 OK
Access-Control-Allow-Origin: *
Content-Length: 104
Content-Security-Policy: default-src 'self';base-uri 'self';block-all-mixed-content;font-src 'self' https: data:;form-action 'self';frame-ancestors 'self';img-src 'self' data:;object-src 'none';script-src 'self';script-src-attr 'none';style-src 'self' https: 'unsafe-inline';upgrade-insecure-requests
Content-Type: application/json; charset=utf-8
Cross-Origin-Embedder-Policy: require-corp
Cross-Origin-Opener-Policy: same-origin
Cross-Origin-Resource-Policy: same-origin
Date: Tue, 15 Feb 2022 12:09:15 GMT
Expect-Ct: max-age=0
Origin-Agent-Cluster: ?1
Referrer-Policy: no-referrer
Strict-Transport-Security: max-age=15552000; includeSubDomains
Vary: Origin
X-Content-Type-Options: nosniff
X-Dns-Prefetch-Control: off
X-Download-Options: noopen
X-Frame-Options: SAMEORIGIN
X-Permitted-Cross-Domain-Policies: none
X-Xss-Protection: 0

{"jsonrpc":"2.0","id":843,"result":"0x47cf75dcb7028a14026fdf96b83dcd8ee1a2ce6eaef8f6efb812115bd76a8d1e"}

GET /conformance/v1/issuer-mock/.well-known/openid-configuration HTTP/1.1
User-Agent: Java/16.0.2
Host: api.conformance.intebsi.xyz
Accept: text/html, image/gif, image/jpeg, *; q=.2, */*; q=.2
Connection: keep-alive
Conformance: 286dc8c9-15ce-4f4b-a32b-8ce5a5b7c4f5



HTTP/1.1 404 Not Found
Access-Control-Allow-Origin: *
Content-Length: 138
Content-Type: application/problem+json; charset=utf-8
Date: Tue, 15 Feb 2022 12:09:20 GMT
Vary: Origin

{"title":"Not Found","status":404,"type":"about:blank","detail":"Cannot GET /conformance/v1/issuer-mock/.well-known/openid-configuration"}

GET /conformance/v1/issuer-mock/authorize?scope=openid&claims=%7B%22credentials%22%3A%5B%7B%22type%22%3A%22https%3A%5C%2F%5C%2Fapi.preprod.ebsi.eu%5C%2Ftrusted-schemas-registry%5C%2Fv1%5C%2Fschemas%5C%2F0x14b05b9213dbe7d343ec1fe1d3c8c739a3f3dc5a59bae55eb38fa0c295124f49%23%22%7D%5D%7D&response_type=code&redirect_uri=http%3A%2F%2Fblank&state=teststate&nonce=testnonce&client_id=http%3A%2F%2Fblank HTTP/1.1
User-Agent: Java/16.0.2
Host: api.conformance.intebsi.xyz
Accept: text/html, image/gif, image/jpeg, *; q=.2, */*; q=.2
Connection: keep-alive
Conformance: 286dc8c9-15ce-4f4b-a32b-8ce5a5b7c4f5



HTTP/1.1 200 OK
Access-Control-Allow-Origin: *
Content-Length: 51
Content-Security-Policy: default-src 'self';base-uri 'self';block-all-mixed-content;font-src 'self' https: data:;form-action 'self';frame-ancestors 'self';img-src 'self' data:;object-src 'none';script-src 'self';script-src-attr 'none';style-src 'self' https: 'unsafe-inline';upgrade-insecure-requests
Content-Type: application/json; charset=utf-8
Cross-Origin-Embedder-Policy: require-corp
Cross-Origin-Opener-Policy: same-origin
Cross-Origin-Resource-Policy: same-origin
Date: Tue, 15 Feb 2022 12:09:20 GMT
Expect-Ct: max-age=0
Origin-Agent-Cluster: ?1
Referrer-Policy: no-referrer
Strict-Transport-Security: max-age=15552000; includeSubDomains
Vary: Origin
X-Content-Type-Options: nosniff
X-Dns-Prefetch-Control: off
X-Download-Options: noopen
X-Frame-Options: SAMEORIGIN
X-Permitted-Cross-Domain-Policies: none
X-Xss-Protection: 0

{"state":"teststate","code":"eab7c7bfd44a92cb0d50"}

POST /conformance/v1/issuer-mock/token HTTP/1.1
Authorization: Basic d19BeUF3WVRDaDVRVmxMTVdabDNjSGpFMmd1c0pfc1Z5eHZIUnoyUDV0dzp2NDNIS01obXI3NU1mNWsxbkllMW1yb3dERFgzbDF0My1tMEp5WmRQS1RR
Content-Type: application/json
User-Agent: Java/16.0.2
Host: api.conformance.intebsi.xyz
Accept: text/html, image/gif, image/jpeg, *; q=.2, */*; q=.2
Connection: keep-alive
Content-Length: 102
Conformance: 286dc8c9-15ce-4f4b-a32b-8ce5a5b7c4f5

{ "code": "eab7c7bfd44a92cb0d50", "grant_type": "authorization_code", "redirect_uri": "http://blank" }

HTTP/1.1 200 OK
Access-Control-Allow-Origin: *
Content-Length: 388
Content-Security-Policy: default-src 'self';base-uri 'self';block-all-mixed-content;font-src 'self' https: data:;form-action 'self';frame-ancestors 'self';img-src 'self' data:;object-src 'none';script-src 'self';script-src-attr 'none';style-src 'self' https: 'unsafe-inline';upgrade-insecure-requests
Content-Type: application/json; charset=utf-8
Cross-Origin-Embedder-Policy: require-corp
Cross-Origin-Opener-Policy: same-origin
Cross-Origin-Resource-Policy: same-origin
Date: Tue, 15 Feb 2022 12:09:20 GMT
Expect-Ct: max-age=0
Origin-Agent-Cluster: ?1
Referrer-Policy: no-referrer
Strict-Transport-Security: max-age=15552000; includeSubDomains
Vary: Origin
X-Content-Type-Options: nosniff
X-Dns-Prefetch-Control: off
X-Download-Options: noopen
X-Frame-Options: SAMEORIGIN
X-Permitted-Cross-Domain-Policies: none
X-Xss-Protection: 0

{"token_type":"Bearer","access_token":"13db5e65671546e8de57","expires_in":3600,"c_nonce":"85a5a0ba88ed5aac9025","id_token":"eyJ0eXAiOiJKV1QiLCJhbGciOiJFUzI1NksifQ.eyJpYXQiOjE2NDQ5MjY5NjAsInN1YiI6Imh0dHA6Ly9ibGFuayIsImF1ZCI6Imh0dHA6Ly9ibGFuayIsImlzcyI6ImRpZDplYnNpOnoyMVNxTUo1M2ZZUzY5VlpSWVRVRURhZyJ9.3xMqdFS6lhm5xDA7nLk_wB0XlwpsmnApV2Sv2P7cUho2CtJWopSekUAlB-hYsip_rdtXzdtg6QBo-9jxnJWVIA"}

POST /conformance/v1/issuer-mock/credential HTTP/1.1
Authorization: Bearer 13db5e65671546e8de57
Content-Type: application/json
User-Agent: Java/16.0.2
Host: api.conformance.intebsi.xyz
Accept: text/html, image/gif, image/jpeg, *; q=.2, */*; q=.2
Connection: keep-alive
Content-Length: 769
Conformance: 286dc8c9-15ce-4f4b-a32b-8ce5a5b7c4f5

{"format":"jwt_vc","proof":{"creator":"did:ebsi:zyj7XWH3y1HXLFF7QpqgVx1","jws":"eyJraWQiOiJkaWQ6ZWJzaTp6eWo3WFdIM3kxSFhMRkY3UXBxZ1Z4MSIsInR5cCI6IkpXVCIsImFsZyI6IkVTMjU2SyJ9.eyJpc3MiOiJkaWQ6ZWJzaTp6eWo3WFdIM3kxSFhMRkY3UXBxZ1Z4MSIsInN1YiI6ImRpZDplYnNpOnp5ajdYV0gzeTFIWExGRjdRcHFnVngxIiwiY19ub25jZSI6Ijg1YTVhMGJhODhlZDVhYWM5MDI1In0._yWJvX9RksQ0CIG36OaLsIRaJD8efuStHsWIFWw2882lubESBmr40bw5DB93gxdbBAlyK2wJCrdUTn3HGs1AFw","type":"EcdsaSecp256k1VerificationKey2019","verificationMethod":"did:ebsi:zyj7XWH3y1HXLFF7QpqgVx1#21ae5dc5167440479bb2e089d261f9b2","nonce":"85a5a0ba88ed5aac9025"},"type":"https:\/\/api.preprod.ebsi.eu\/trusted-schemas-registry\/v1\/schemas\/0x14b05b9213dbe7d343ec1fe1d3c8c739a3f3dc5a59bae55eb38fa0c295124f49#","did":"did:ebsi:zyj7XWH3y1HXLFF7QpqgVx1"}

HTTP/1.1 200 OK
Access-Control-Allow-Origin: *
Content-Length: 1711
Content-Security-Policy: default-src 'self';base-uri 'self';block-all-mixed-content;font-src 'self' https: data:;form-action 'self';frame-ancestors 'self';img-src 'self' data:;object-src 'none';script-src 'self';script-src-attr 'none';style-src 'self' https: 'unsafe-inline';upgrade-insecure-requests
Content-Type: application/json; charset=utf-8
Cross-Origin-Embedder-Policy: require-corp
Cross-Origin-Opener-Policy: same-origin
Cross-Origin-Resource-Policy: same-origin
Date: Tue, 15 Feb 2022 12:09:20 GMT
Expect-Ct: max-age=0
Origin-Agent-Cluster: ?1
Referrer-Policy: no-referrer
Strict-Transport-Security: max-age=15552000; includeSubDomains
Vary: Origin
X-Content-Type-Options: nosniff
X-Dns-Prefetch-Control: off
X-Download-Options: noopen
X-Frame-Options: SAMEORIGIN
X-Permitted-Cross-Domain-Policies: none
X-Xss-Protection: 0

{"format":"jwt_vc","credential":"eyJ0eXAiOiJKV1QiLCJhbGciOiJFUzI1NksifQ.eyJpYXQiOjE2NDQ5MjY5NjAsInZjIjp7IkBjb250ZXh0IjpbImh0dHBzOi8vd3d3LnczLm9yZy8yMDE4L2NyZWRlbnRpYWxzL3YxIl0sImlkIjoidXJuOmVic2k6c3RhdHVzOmlkZW50aXR5OnZlcmlmaWFibGVJRCNmNDg1ZTRlYS0xNmVhLTQxY2ItOTZhYy00ZGQ2MzEwNTg3YTUiLCJ0eXBlIjpbIlZlcmlmaWFibGVDcmVkZW50aWFsIiwiVmVyaWZpYWJsZUF0dGVzdGF0aW9uIiwiVmVyaWZpYWJsZUlkIl0sImlzc3VlciI6ImRpZDplYnNpOnoyMVNxTUo1M2ZZUzY5VlpSWVRVRURhZyIsImlzc3VhbmNlRGF0ZSI6IjIwMjItMDItMTVUMTI6MDk6MjBaIiwidmFsaWRGcm9tIjoiMjAyMi0wMi0xNVQxMjowOToyMFoiLCJjcmVkZW50aWFsU3ViamVjdCI6eyJpZCI6ImRpZDplYnNpOnp5ajdYV0gzeTFIWExGRjdRcHFnVngxIiwiZmFtaWx5TmFtZSI6IkRvZSIsImZpcnN0TmFtZSI6IkpvaG4iLCJkYXRlT2ZCaXJ0aCI6IjE5OTktMDMtMjIiLCJwZXJzb25hbElkZW50aWZpZXIiOiJFUy9BVC8xMjM0NTY3ODkifSwiY3JlZGVudGlhbFNjaGVtYSI6eyJpZCI6Imh0dHBzOi8vYXBpLnByZXByb2QuZWJzaS5ldS90cnVzdGVkLXNjaGVtYXMtcmVnaXN0cnkvdjEvc2NoZW1hcy8weDE0YjA1YjkyMTNkYmU3ZDM0M2VjMWZlMWQzYzhjNzM5YTNmM2RjNWE1OWJhZTU1ZWIzOGZhMGMyOTUxMjRmNDkjIiwidHlwZSI6IkZ1bGxKc29uU2NoZW1hVmFsaWRhdG9yMjAyMSJ9LCJjcmVkZW50aWFsU3RhdHVzIjp7ImlkIjoidXJuOmVic2k6c3RhdHVzOmlkZW50aXR5OnZlcmlmaWFibGVJRCMxZGVlMzU1ZC0wNDMyLTQ5MTAtYWM5Yy03MGQ4OWU4ZDY3NGUiLCJ0eXBlIjoiQ3JlZGVudGlhbFN0YXR1c0xpc3QyMDIwIn0sImV4cGlyYXRpb25EYXRlIjoiMjAzMi0wMi0xNVQxMjowOToyMFoiLCJldmlkZW5jZSI6W3sidHlwZSI6WyJEb2N1bWVudFZlcmlmaWNhdGlvbiJdLCJ2ZXJpZmllciI6ImRpZDplYnNpOnoyMVNxTUo1M2ZZUzY5VlpSWVRVRURhZyIsImV2aWRlbmNlRG9jdW1lbnQiOlsiUGFzc3BvcnQiXSwic3ViamVjdFByZXNlbmNlIjoiUGh5c2ljYWwiLCJkb2N1bWVudFByZXNlbmNlIjpbIlBoeXNpY2FsIl19XX0sImlzcyI6ImRpZDplYnNpOnoyMVNxTUo1M2ZZUzY5VlpSWVRVRURhZyJ9.vEp1FeXkjU8FGCLd2X9nc3rVDUHQcWxBVZqPc0pW3Mj8nIR5p1d5cVoqNG2Ilx6PC9Da7oWINUN-jxd1-iumJw","c_nonce":"6eb7266a57a50aa8d3c5","c_nonce_expires_in":900}

GET /conformance/v1/verifier-mock/authentication-requests HTTP/1.1
User-Agent: Java/16.0.2
Host: api.conformance.intebsi.xyz
Accept: text/html, image/gif, image/jpeg, *; q=.2, */*; q=.2
Connection: keep-alive
Conformance: 286dc8c9-15ce-4f4b-a32b-8ce5a5b7c4f5



HTTP/1.1 200 OK
Access-Control-Allow-Origin: *
Content-Length: 1667
Content-Security-Policy: default-src 'self';base-uri 'self';block-all-mixed-content;font-src 'self' https: data:;form-action 'self';frame-ancestors 'self';img-src 'self' data:;object-src 'none';script-src 'self';script-src-attr 'none';style-src 'self' https: 'unsafe-inline';upgrade-insecure-requests
Content-Type: application/x-www-form-urlencoded
Cross-Origin-Embedder-Policy: require-corp
Cross-Origin-Opener-Policy: same-origin
Cross-Origin-Resource-Policy: same-origin
Date: Tue, 15 Feb 2022 12:09:21 GMT
Expect-Ct: max-age=0
Origin-Agent-Cluster: ?1
Referrer-Policy: no-referrer
Strict-Transport-Security: max-age=15552000; includeSubDomains
Vary: Origin
X-Content-Type-Options: nosniff
X-Dns-Prefetch-Control: off
X-Download-Options: noopen
X-Frame-Options: SAMEORIGIN
X-Permitted-Cross-Domain-Policies: none
X-Xss-Protection: 0

openid://?response_type=id_token&client_id=https%3A%2F%2Fapi.conformance.intebsi.xyz%2Fconformance%2Fv1%2Fverifier-mock%2Fauthentication-responses&scope=ebsi%20conformance%20mock&nonce=345c115a-803d-4451-80ce-bfb7d6c7b352&request=eyJhbGciOiJFUzI1NksiLCJ0eXAiOiJKV1QiLCJraWQiOiJkaWQ6ZWJzaTp6MjFTcU1KNTNmWVM2OVZaUllUVUVEYWcvI2tleXMtMSJ9.eyJpYXQiOjE2NDQ5MjY5NjEsImV4cCI6MTY0NDkyNzI2MSwiaXNzIjoiZGlkOmVic2k6ejIxU3FNSjUzZllTNjlWWlJZVFVFRGFnIiwic2NvcGUiOiJlYnNpIGNvbmZvcm1hbmNlIG1vY2siLCJyZXNwb25zZV90eXBlIjoiaWRfdG9rZW4iLCJyZXNwb25zZV9tb2RlIjoicG9zdCIsImNsaWVudF9pZCI6Imh0dHBzOi8vYXBpLmNvbmZvcm1hbmNlLmludGVic2kueHl6L2NvbmZvcm1hbmNlL3YxL3ZlcmlmaWVyLW1vY2svYXV0aGVudGljYXRpb24tcmVzcG9uc2VzIiwicmVkaXJlY3RfdXJpIjoiaHR0cHM6Ly9hcGkuY29uZm9ybWFuY2UuaW50ZWJzaS54eXovY29uZm9ybWFuY2UvdjEvdmVyaWZpZXItbW9jay9hdXRoZW50aWNhdGlvbi1yZXNwb25zZXMiLCJub25jZSI6IjM0NWMxMTVhLTgwM2QtNDQ1MS04MGNlLWJmYjdkNmM3YjM1MiIsInJlZ2lzdHJhdGlvbiI6Im1vY2sgcmVnaXN0cmF0aW9uIiwiY2xhaW1zIjp7ImlkX3Rva2VuIjp7InZwX3Rva2VuIjp7InByZXNlbnRhdGlvbl9kZWZpbml0aW9uIjp7ImlucHV0X2Rlc2NyaXB0b3JzIjpbeyJzY2hlbWEiOnsidXJpIjoiaHR0cHM6Ly9hcGkucHJlcHJvZC5lYnNpLmV1L3RydXN0ZWQtc2NoZW1hcy1yZWdpc3RyeS92MS9zY2hlbWFzLzB4MTRiMDViOTIxM2RiZTdkMzQzZWMxZmUxZDNjOGM3MzlhM2YzZGM1YTU5YmFlNTVlYjM4ZmEwYzI5NTEyNGY0OSMifX1dfX19fX0.Sw5xHFSTLe2T9JHGx2aFeNEQAlNZ28HNTha27bFT1ZBbs5EmHoj1EqnuooKzCqn4m7MVbO1ds26rV26rZsDRbw&claims=%7B%22id_token%22%3A%7B%22vp_token%22%3A%7B%22presentation_definition%22%3A%7B%22input_descriptors%22%3A%5B%7B%22schema%22%3A%7B%22uri%22%3A%22https%3A%2F%2Fapi.preprod.ebsi.eu%2Ftrusted-schemas-registry%2Fv1%2Fschemas%2F0x14b05b9213dbe7d343ec1fe1d3c8c739a3f3dc5a59bae55eb38fa0c295124f49%23%22%7D%7D%5D%7D%7D%7D%7D

POST /conformance/v1/verifier-mock/authentication-responses HTTP/1.1
Content-Type: application/json
User-Agent: Java/16.0.2
Host: api.conformance.intebsi.xyz
Accept: text/html, image/gif, image/jpeg, *; q=.2, */*; q=.2
Connection: keep-alive
Content-Length: 3342
Conformance: 286dc8c9-15ce-4f4b-a32b-8ce5a5b7c4f5

{"id_token": "eyJraWQiOiJkaWQ6ZWJzaTp6eWo3WFdIM3kxSFhMRkY3UXBxZ1Z4MSIsInR5cCI6IkpXVCIsImFsZyI6IkVTMjU2SyJ9.eyJhdWQiOiJodHRwOlwvXC9sb2NhbGhvc3Q6ODA4MFwvY29uZm9ybWFuY2VcL3YxXC92ZXJpZmllci1tb2NrXC9hdXRoZW50aWNhdGlvbi1yZXNwb25zZXMiLCJzdWIiOiJkaWQ6ZWJzaTp6eWo3WFdIM3kxSFhMRkY3UXBxZ1Z4MSIsImlzcyI6Imh0dHBzOlwvXC9zZWxmLWlzc3VlZC5tZVwvdjIiLCJleHAiOjE2NDQ5MzA1NjEsImlhdCI6MTY0NDkyNjk2MSwibm9uY2UiOiIzNDVjMTE1YS04MDNkLTQ0NTEtODBjZS1iZmI3ZDZjN2IzNTIiLCJfdnBfdG9rZW4iOnsicHJlc2VudGF0aW9uX3N1Ym1pc3Npb24iOnsiZGVzY3JpcHRvcl9tYXAiOlt7InBhdGgiOiIkIiwiZm9ybWF0Ijoiand0X3ZwIn1dLCJkZWZpbml0aW9uX2lkIjpudWxsLCJpZCI6bnVsbH19fQ.9YIauPyXxJfsjzmo4g8iI6RZx-LmhBe3NpFCQfJDaf3boyMnQFnV6xLg7VjsVo0qG3w93rAN_H09RMP4mno-oA", "vp_token": [{"format": "jwt_vp", "presentation": "eyJraWQiOiJkaWQ6ZWJzaTp6eWo3WFdIM3kxSFhMRkY3UXBxZ1Z4MSIsInR5cCI6IkpXVCIsImFsZyI6IkVTMjU2SyJ9.eyJpc3MiOiJkaWQ6ZWJzaTp6eWo3WFdIM3kxSFhMRkY3UXBxZ1Z4MSIsInN1YiI6ImRpZDplYnNpOnp5ajdYV0gzeTFIWExGRjdRcHFnVngxIiwiaWF0IjoxNjQ0OTI2OTYxLCJ2YyI6ImV5SjBlWEFpT2lKS1YxUWlMQ0poYkdjaU9pSkZVekkxTmtzaWZRLmV5SnBZWFFpT2pFMk5EUTVNalk1TmpBc0luWmpJanA3SWtCamIyNTBaWGgwSWpwYkltaDBkSEJ6T2k4dmQzZDNMbmN6TG05eVp5OHlNREU0TDJOeVpXUmxiblJwWVd4ekwzWXhJbDBzSW1sa0lqb2lkWEp1T21WaWMyazZjM1JoZEhWek9tbGtaVzUwYVhSNU9uWmxjbWxtYVdGaWJHVkpSQ05tTkRnMVpUUmxZUzB4Tm1WaExUUXhZMkl0T1RaaFl5MDBaR1EyTXpFd05UZzNZVFVpTENKMGVYQmxJanBiSWxabGNtbG1hV0ZpYkdWRGNtVmtaVzUwYVdGc0lpd2lWbVZ5YVdacFlXSnNaVUYwZEdWemRHRjBhVzl1SWl3aVZtVnlhV1pwWVdKc1pVbGtJbDBzSW1semMzVmxjaUk2SW1ScFpEcGxZbk5wT25veU1WTnhUVW8xTTJaWlV6WTVWbHBTV1ZSVlJVUmhaeUlzSW1semMzVmhibU5sUkdGMFpTSTZJakl3TWpJdE1ESXRNVFZVTVRJNk1EazZNakJhSWl3aWRtRnNhV1JHY205dElqb2lNakF5TWkwd01pMHhOVlF4TWpvd09Ub3lNRm9pTENKamNtVmtaVzUwYVdGc1UzVmlhbVZqZENJNmV5SnBaQ0k2SW1ScFpEcGxZbk5wT25wNWFqZFlWMGd6ZVRGSVdFeEdSamRSY0hGblZuZ3hJaXdpWm1GdGFXeDVUbUZ0WlNJNklrUnZaU0lzSW1acGNuTjBUbUZ0WlNJNklrcHZhRzRpTENKa1lYUmxUMlpDYVhKMGFDSTZJakU1T1RrdE1ETXRNaklpTENKd1pYSnpiMjVoYkVsa1pXNTBhV1pwWlhJaU9pSkZVeTlCVkM4eE1qTTBOVFkzT0RraWZTd2lZM0psWkdWdWRHbGhiRk5qYUdWdFlTSTZleUpwWkNJNkltaDBkSEJ6T2k4dllYQnBMbkJ5WlhCeWIyUXVaV0p6YVM1bGRTOTBjblZ6ZEdWa0xYTmphR1Z0WVhNdGNtVm5hWE4wY25rdmRqRXZjMk5vWlcxaGN5OHdlREUwWWpBMVlqa3lNVE5rWW1VM1pETTBNMlZqTVdabE1XUXpZemhqTnpNNVlUTm1NMlJqTldFMU9XSmhaVFUxWldJek9HWmhNR015T1RVeE1qUm1ORGtqSWl3aWRIbHdaU0k2SWtaMWJHeEtjMjl1VTJOb1pXMWhWbUZzYVdSaGRHOXlNakF5TVNKOUxDSmpjbVZrWlc1MGFXRnNVM1JoZEhWeklqcDdJbWxrSWpvaWRYSnVPbVZpYzJrNmMzUmhkSFZ6T21sa1pXNTBhWFI1T25abGNtbG1hV0ZpYkdWSlJDTXhaR1ZsTXpVMVpDMHdORE15TFRRNU1UQXRZV001WXkwM01HUTRPV1U0WkRZM05HVWlMQ0owZVhCbElqb2lRM0psWkdWdWRHbGhiRk4wWVhSMWMweHBjM1F5TURJd0luMHNJbVY0Y0dseVlYUnBiMjVFWVhSbElqb2lNakF6TWkwd01pMHhOVlF4TWpvd09Ub3lNRm9pTENKbGRtbGtaVzVqWlNJNlczc2lkSGx3WlNJNld5SkViMk4xYldWdWRGWmxjbWxtYVdOaGRHbHZiaUpkTENKMlpYSnBabWxsY2lJNkltUnBaRHBsWW5OcE9ub3lNVk54VFVvMU0yWlpVelk1VmxwU1dWUlZSVVJoWnlJc0ltVjJhV1JsYm1ObFJHOWpkVzFsYm5RaU9sc2lVR0Z6YzNCdmNuUWlYU3dpYzNWaWFtVmpkRkJ5WlhObGJtTmxJam9pVUdoNWMybGpZV3dpTENKa2IyTjFiV1Z1ZEZCeVpYTmxibU5sSWpwYklsQm9lWE5wWTJGc0lsMTlYWDBzSW1semN5STZJbVJwWkRwbFluTnBPbm95TVZOeFRVbzFNMlpaVXpZNVZscFNXVlJWUlVSaFp5SjkudkVwMUZlWGtqVThGR0NMZDJYOW5jM3JWRFVIUWNXeEJWWnFQYzBwVzNNajhuSVI1cDFkNWNWb3FORzJJbHg2UEM5RGE3b1dJTlVOLWp4ZDEtaXVtSnciLCJqdGkiOiJ1cm46ZWJzaTpzdGF0dXM6aWRlbnRpdHk6dmVyaWZpYWJsZUlEI2Y0ODVlNGVhLTE2ZWEtNDFjYi05NmFjLTRkZDYzMTA1ODdhNSJ9.tSWm6ccJ7ArfL-WaGQHKLJlw3OwySOMwD1WLo4blEMtV4IlR8HtwRQ2qtMA0PurxitQ0c0kccLlpLjG5mQcfsA"}]}

HTTP/1.1 200 OK
Access-Control-Allow-Origin: *
Content-Length: 187
Content-Security-Policy: default-src 'self';base-uri 'self';block-all-mixed-content;font-src 'self' https: data:;form-action 'self';frame-ancestors 'self';img-src 'self' data:;object-src 'none';script-src 'self';script-src-attr 'none';style-src 'self' https: 'unsafe-inline';upgrade-insecure-requests
Content-Type: application/json; charset=utf-8
Cross-Origin-Embedder-Policy: require-corp
Cross-Origin-Opener-Policy: same-origin
Cross-Origin-Resource-Policy: same-origin
Date: Tue, 15 Feb 2022 12:09:21 GMT
Expect-Ct: max-age=0
Origin-Agent-Cluster: ?1
Referrer-Policy: no-referrer
Strict-Transport-Security: max-age=15552000; includeSubDomains
Vary: Origin
X-Content-Type-Options: nosniff
X-Dns-Prefetch-Control: off
X-Download-Options: noopen
X-Frame-Options: SAMEORIGIN
X-Permitted-Cross-Domain-Policies: none
X-Xss-Protection: 0

{"result":true,"validations":{"vpFormat":{"status":true},"vpDidSignature":{"status":true},"vcDidSignature":{"status":true},"didOwnership":{"status":true},"trustedIssuer":{"status":true}}}
